{
  "_format": "hh-sol-artifact-1",
  "contractName": "CENNZnetBridge",
  "sourceName": "contracts/CENNZnetBridge.sol",
  "abi": [
    {
      "anonymous": false,
      "inputs": [
        {
          "indexed": true,
          "internalType": "address",
          "name": "previousOwner",
          "type": "address"
        },
        {
          "indexed": true,
          "internalType": "address",
          "name": "newOwner",
          "type": "address"
        }
      ],
      "name": "OwnershipTransferred",
      "type": "event"
    },
    {
      "anonymous": false,
      "inputs": [
        {
          "indexed": false,
          "internalType": "bytes32",
          "name": "validatorSetDigest",
          "type": "bytes32"
        },
        {
          "indexed": false,
          "internalType": "uint256",
          "name": "reward",
          "type": "uint256"
        },
        {
          "indexed": false,
          "internalType": "uint32",
          "name": "validatorSetId",
          "type": "uint32"
        }
      ],
      "name": "SetValidators",
      "type": "event"
    },
    {
      "inputs": [],
      "name": "active",
      "outputs": [
        {
          "internalType": "bool",
          "name": "",
          "type": "bool"
        }
      ],
      "stateMutability": "view",
      "type": "function"
    },
    {
      "inputs": [],
      "name": "activeValidatorSetId",
      "outputs": [
        {
          "internalType": "uint32",
          "name": "",
          "type": "uint32"
        }
      ],
      "stateMutability": "view",
      "type": "function"
    },
    {
      "inputs": [
        {
          "internalType": "uint256",
          "name": "",
          "type": "uint256"
        }
      ],
      "name": "eventIds",
      "outputs": [
        {
          "internalType": "bool",
          "name": "",
          "type": "bool"
        }
      ],
      "stateMutability": "view",
      "type": "function"
    },
    {
      "inputs": [
        {
          "internalType": "address[]",
          "name": "_validators",
          "type": "address[]"
        },
        {
          "internalType": "uint32",
          "name": "validatorSetId",
          "type": "uint32"
        }
      ],
      "name": "forceActiveValidatorSet",
      "outputs": [],
      "stateMutability": "nonpayable",
      "type": "function"
    },
    {
      "inputs": [
        {
          "internalType": "address[]",
          "name": "_validators",
          "type": "address[]"
        },
        {
          "internalType": "uint32",
          "name": "validatorSetId",
          "type": "uint32"
        }
      ],
      "name": "forceHistoricValidatorSet",
      "outputs": [],
      "stateMutability": "nonpayable",
      "type": "function"
    },
    {
      "inputs": [],
      "name": "maxRewardPayout",
      "outputs": [
        {
          "internalType": "uint256",
          "name": "",
          "type": "uint256"
        }
      ],
      "stateMutability": "view",
      "type": "function"
    },
    {
      "inputs": [],
      "name": "owner",
      "outputs": [
        {
          "internalType": "address",
          "name": "",
          "type": "address"
        }
      ],
      "stateMutability": "view",
      "type": "function"
    },
    {
      "inputs": [],
      "name": "proofTTL",
      "outputs": [
        {
          "internalType": "uint256",
          "name": "",
          "type": "uint256"
        }
      ],
      "stateMutability": "view",
      "type": "function"
    },
    {
      "inputs": [],
      "name": "renounceOwnership",
      "outputs": [],
      "stateMutability": "nonpayable",
      "type": "function"
    },
    {
      "inputs": [
        {
          "internalType": "bool",
          "name": "active_",
          "type": "bool"
        }
      ],
      "name": "setActive",
      "outputs": [],
      "stateMutability": "nonpayable",
      "type": "function"
    },
    {
      "inputs": [
        {
          "internalType": "uint256",
          "name": "newMaxRewardPayout",
          "type": "uint256"
        }
      ],
      "name": "setMaxRewardPayout",
      "outputs": [],
      "stateMutability": "nonpayable",
      "type": "function"
    },
    {
      "inputs": [
        {
          "internalType": "uint256",
          "name": "newTTL",
          "type": "uint256"
        }
      ],
      "name": "setProofTTL",
      "outputs": [],
      "stateMutability": "nonpayable",
      "type": "function"
    },
    {
      "inputs": [
        {
          "internalType": "uint256",
          "name": "newThresholdPercent",
          "type": "uint256"
        }
      ],
      "name": "setThreshold",
      "outputs": [],
      "stateMutability": "nonpayable",
      "type": "function"
    },
    {
      "inputs": [
        {
          "internalType": "address[]",
          "name": "newValidators",
          "type": "address[]"
        },
        {
          "internalType": "uint32",
          "name": "newValidatorSetId",
          "type": "uint32"
        },
        {
          "components": [
            {
              "internalType": "uint256",
              "name": "eventId",
              "type": "uint256"
            },
            {
              "internalType": "uint32",
              "name": "validatorSetId",
              "type": "uint32"
            },
            {
              "internalType": "uint8[]",
              "name": "v",
              "type": "uint8[]"
            },
            {
              "internalType": "bytes32[]",
              "name": "r",
              "type": "bytes32[]"
            },
            {
              "internalType": "bytes32[]",
              "name": "s",
              "type": "bytes32[]"
            },
            {
              "internalType": "address[]",
              "name": "validators",
              "type": "address[]"
            }
          ],
          "internalType": "struct CENNZnetEventProof",
          "name": "proof",
          "type": "tuple"
        }
      ],
      "name": "setValidators",
      "outputs": [],
      "stateMutability": "payable",
      "type": "function"
    },
    {
      "inputs": [
        {
          "internalType": "uint256",
          "name": "newFee",
          "type": "uint256"
        }
      ],
      "name": "setVerificationFee",
      "outputs": [],
      "stateMutability": "nonpayable",
      "type": "function"
    },
    {
      "inputs": [],
      "name": "thresholdPercent",
      "outputs": [
        {
          "internalType": "uint256",
          "name": "",
          "type": "uint256"
        }
      ],
      "stateMutability": "view",
      "type": "function"
    },
    {
      "inputs": [
        {
          "internalType": "address",
          "name": "newOwner",
          "type": "address"
        }
      ],
      "name": "transferOwnership",
      "outputs": [],
      "stateMutability": "nonpayable",
      "type": "function"
    },
    {
      "inputs": [
        {
          "internalType": "uint256",
          "name": "",
          "type": "uint256"
        }
      ],
      "name": "validatorSetDigests",
      "outputs": [
        {
          "internalType": "bytes32",
          "name": "",
          "type": "bytes32"
        }
      ],
      "stateMutability": "view",
      "type": "function"
    },
    {
      "inputs": [],
      "name": "verificationFee",
      "outputs": [
        {
          "internalType": "uint256",
          "name": "",
          "type": "uint256"
        }
      ],
      "stateMutability": "view",
      "type": "function"
    },
    {
      "inputs": [
        {
          "internalType": "bytes",
          "name": "message",
          "type": "bytes"
        },
        {
          "components": [
            {
              "internalType": "uint256",
              "name": "eventId",
              "type": "uint256"
            },
            {
              "internalType": "uint32",
              "name": "validatorSetId",
              "type": "uint32"
            },
            {
              "internalType": "uint8[]",
              "name": "v",
              "type": "uint8[]"
            },
            {
              "internalType": "bytes32[]",
              "name": "r",
              "type": "bytes32[]"
            },
            {
              "internalType": "bytes32[]",
              "name": "s",
              "type": "bytes32[]"
            },
            {
              "internalType": "address[]",
              "name": "validators",
              "type": "address[]"
            }
          ],
          "internalType": "struct CENNZnetEventProof",
          "name": "proof",
          "type": "tuple"
        }
      ],
      "name": "verifyMessage",
      "outputs": [],
      "stateMutability": "payable",
      "type": "function"
    }
  ],
  "bytecode": "0x608060405266038d7ea4c68000600455603c60055560036006556007805460ff19166001179055670de0b6b3a764000060085534801561003e57600080fd5b506100483361004d565b61009d565b600080546001600160a01b038381166001600160a01b0319831681178455604051919092169283917f8be0079c531659141344cd1fd0a4f28419497f9722a3daafe3b4186f6b6457e09190a35050565b6116dd806100ac6000396000f3fe60806040526004361061011f5760003560e01c80638da5cb5b116100a0578063aae9d5f211610064578063aae9d5f214610324578063acec338a14610344578063c78ebebe14610364578063cfc16cea14610377578063f2fde38b1461038d57600080fd5b80638da5cb5b14610269578063960bfe0414610291578063996b2f94146102b1578063998f6ac0146102de578063a8c278a21461030e57600080fd5b80634008b03f116100e75780634008b03f146101c25780634acf7721146101e25780635f7e939914610202578063715018a6146102345780637755618b1461024957600080fd5b806302fb0c5e146101245780631684ff96146101535780632c05f9a2146101685780633301a4641461018c5780633ab578aa146101ac575b600080fd5b34801561013057600080fd5b5060075461013e9060ff1681565b60405190151581526020015b60405180910390f35b6101666101613660046110d1565b6103ad565b005b34801561017457600080fd5b5061017e60085481565b60405190815260200161014a565b34801561019857600080fd5b506101666101a73660046111f9565b610607565b3480156101b857600080fd5b5061017e60065481565b3480156101ce57600080fd5b506101666101dd36600461107f565b610636565b3480156101ee57600080fd5b506101666101fd36600461107f565b61071b565b34801561020e57600080fd5b5060025461021f9063ffffffff1681565b60405163ffffffff909116815260200161014a565b34801561024057600080fd5b50610166610807565b34801561025557600080fd5b506101666102643660046111f9565b61083d565b34801561027557600080fd5b506000546040516001600160a01b03909116815260200161014a565b34801561029d57600080fd5b506101666102ac3660046111f9565b61086c565b3480156102bd57600080fd5b5061017e6102cc3660046111f9565b60016020526000908152604090205481565b3480156102ea57600080fd5b5061013e6102f93660046111f9565b60036020526000908152604090205460ff1681565b34801561031a57600080fd5b5061017e60045481565b34801561033057600080fd5b5061016661033f3660046111f9565b6108e5565b34801561035057600080fd5b5061016661035f36600461114b565b610914565b61016661037236600461116b565b610951565b34801561038357600080fd5b5061017e60055481565b34801561039957600080fd5b506101666103a8366004611065565b610ec0565b826103d35760405162461bcd60e51b81526004016103ca90611527565b60405180910390fd5b60025463ffffffff9081169083161161042e5760405162461bcd60e51b815260206004820152601960248201527f76616c696461746f7220736574206964207265706c617965640000000000000060448201526064016103ca565b60008484846104436040860160208701611211565b6040516104599493929190873590602001611326565b60408051601f19818403018152908290526363c75f5f60e11b82529150309063c78ebebe9061048e90849086906004016113a8565b600060405180830381600087803b1580156104a857600080fd5b505af11580156104bc573d6000803e3d6000fd5b50505050600085856040516020016104d592919061130a565b60408051601f19818403018152918152815160209283012063ffffffff8716600081815260019094529183208190556002805463ffffffff1916909217909155600854909250610526904790610f5b565b604051909150600090339083908381818185875af1925050503d806000811461056b576040519150601f19603f3d011682016040523d82523d6000602084013e610570565b606091505b50509050806105b85760405162461bcd60e51b81526020600482015260146024820152732330b4b632b2103a379039b2b7321022ba3432b960611b60448201526064016103ca565b604080518481526020810184905263ffffffff88168183015290517f3dab4e75c61b76a4152c289f3c93392ddab6386b2423ffab2cee4da9fbb05c719181900360600190a15050505050505050565b6000546001600160a01b031633146106315760405162461bcd60e51b81526004016103ca906114f2565b600855565b6000546001600160a01b031633146106605760405162461bcd60e51b81526004016103ca906114f2565b8161067d5760405162461bcd60e51b81526004016103ca90611527565b60025460065463ffffffff91821691610698919084166115fa565b116106d75760405162461bcd60e51b815260206004820152600f60248201526e73657420697320696e61637469766560881b60448201526064016103ca565b82826040516020016106ea92919061130a565b60408051601f19818403018152918152815160209283012063ffffffff909316600090815260019092529020555050565b6000546001600160a01b031633146107455760405162461bcd60e51b81526004016103ca906114f2565b816107625760405162461bcd60e51b81526004016103ca90611527565b60025463ffffffff90811690821610156107b05760405162461bcd60e51b815260206004820152600f60248201526e73657420697320686973746f72696360881b60448201526064016103ca565b82826040516020016107c392919061130a565b60408051601f19818403018152918152815160209283012063ffffffff909316600081815260019093529120919091556002805463ffffffff191690911790555050565b6000546001600160a01b031633146108315760405162461bcd60e51b81526004016103ca906114f2565b61083b6000610f73565b565b6000546001600160a01b031633146108675760405162461bcd60e51b81526004016103ca906114f2565b600655565b6000546001600160a01b031633146108965760405162461bcd60e51b81526004016103ca906114f2565b60648111156108e05760405162461bcd60e51b8152602060048201526016602482015275070657263656e74206d757374206265203c3d203130360541b60448201526064016103ca565b600555565b6000546001600160a01b0316331461090f5760405162461bcd60e51b81526004016103ca906114f2565b600455565b6000546001600160a01b0316331461093e5760405162461bcd60e51b81526004016103ca906114f2565b6007805460ff1916911515919091179055565b60075460ff166109955760405162461bcd60e51b815260206004820152600f60248201526e62726964676520696e61637469766560881b60448201526064016103ca565b803560008181526003602052604090205460ff16156109e95760405162461bcd60e51b815260206004820152601060248201526f195d995b9d1259081c995c1b185e595960821b60448201526064016103ca565b600454341015806109f957503330145b610a455760405162461bcd60e51b815260206004820152601c60248201527f6d75737420737570706c7920766572696669636174696f6e206665650000000060448201526064016103ca565b6000610a576040840160208501611211565b60025490915063ffffffff9081169082161115610aad5760405162461bcd60e51b8152602060048201526014602482015273199d5d1d5c99481d985b1a59185d1bdc881cd95d60621b60448201526064016103ca565b600654600254610ac490839063ffffffff16611651565b63ffffffff161115610b085760405162461bcd60e51b815260206004820152600d60248201526c32bc3834b932b210383937b7b360991b60448201526064016103ca565b6000610b1760a0850185611554565b808060200260200160405190810160405280939291908181526020018383602002808284376000920191909152505082519293505050610b915760405162461bcd60e51b81526020600482015260156024820152741a5b9d985b1a59081d985b1a59185d1bdc881cd95d605a1b60448201526064016103ca565b600160008363ffffffff1681526020019081526020016000205481604051602001610bbc919061135b565b6040516020818303038152906040528051906020012014610c1f5760405162461bcd60e51b815260206004820152601b60248201527f756e65787065637465642076616c696461746f7220646967657374000000000060448201526064016103ca565b60008686604051610c319291906112fa565b60405180910390209050600060646005548451610c4e9190611632565b610c589190611612565b905060008060005b8551811015610e535781610c7760608b018b61159c565b83818110610c9557634e487b7160e01b600052603260045260246000fd5b9050602002013514610e4157600185610cb160408c018c61159c565b84818110610ccf57634e487b7160e01b600052603260045260246000fd5b9050602002016020810190610ce4919061122b565b610cf160608d018d61159c565b85818110610d0f57634e487b7160e01b600052603260045260246000fd5b905060200201358c8060800190610d26919061159c565b86818110610d4457634e487b7160e01b600052603260045260246000fd5b9050602002013560405160008152602001604052604051610d81949392919093845260ff9290921660208401526040830152606082015260800190565b6020604051602081039080840390855afa158015610da3573d6000803e3d6000fd5b505050602060405103516001600160a01b0316868281518110610dd657634e487b7160e01b600052603260045260246000fd5b60200260200101516001600160a01b031614610e285760405162461bcd60e51b81526020600482015260116024820152701cda59db985d1d5c99481a5b9d985b1a59607a1b60448201526064016103ca565b610e336001846115fa565b9250838310610e4157610e53565b80610e4b81611676565b915050610c60565b5082821015610e9c5760405162461bcd60e51b81526020600482015260156024820152746e6f7420656e6f756768207369676e61747572657360581b60448201526064016103ca565b5050506000938452505060036020525060409020805460ff19166001179055505050565b6000546001600160a01b03163314610eea5760405162461bcd60e51b81526004016103ca906114f2565b6001600160a01b038116610f4f5760405162461bcd60e51b815260206004820152602660248201527f4f776e61626c653a206e6577206f776e657220697320746865207a65726f206160448201526564647265737360d01b60648201526084016103ca565b610f5881610f73565b50565b6000818310610f6a5781610f6c565b825b9392505050565b600080546001600160a01b038381166001600160a01b0319831681178455604051919092169283917f8be0079c531659141344cd1fd0a4f28419497f9722a3daafe3b4186f6b6457e09190a35050565b80356001600160a01b0381168114610fda57600080fd5b919050565b60008083601f840112610ff0578182fd5b50813567ffffffffffffffff811115611007578182fd5b6020830191508360208260051b850101111561102257600080fd5b9250929050565b600060c0828403121561103a578081fd5b50919050565b803563ffffffff81168114610fda57600080fd5b803560ff81168114610fda57600080fd5b600060208284031215611076578081fd5b610f6c82610fc3565b600080600060408486031215611093578182fd5b833567ffffffffffffffff8111156110a9578283fd5b6110b586828701610fdf565b90945092506110c8905060208501611040565b90509250925092565b600080600080606085870312156110e6578081fd5b843567ffffffffffffffff808211156110fd578283fd5b61110988838901610fdf565b909650945084915061111d60208801611040565b93506040870135915080821115611132578283fd5b5061113f87828801611029565b91505092959194509250565b60006020828403121561115c578081fd5b81358015158114610f6c578182fd5b60008060006040848603121561117f578283fd5b833567ffffffffffffffff80821115611196578485fd5b818601915086601f8301126111a9578485fd5b8135818111156111b7578586fd5b8760208285010111156111c8578586fd5b6020928301955093509085013590808211156111e2578283fd5b506111ef86828701611029565b9150509250925092565b60006020828403121561120a578081fd5b5035919050565b600060208284031215611222578081fd5b610f6c82611040565b60006020828403121561123c578081fd5b610f6c82611054565b81835260006020808501945082825b85811015611280576001600160a01b0361126d83610fc3565b1687529582019590820190600101611254565b509495945050505050565b81835260006020808501945082825b85811015611280576001600160a01b036112b383610fc3565b168752958201959082019060010161129a565b81835260006001600160fb1b038311156112de578081fd5b8260051b80836020870137939093016020019283525090919050565b8183823760009101908152919050565b60208152600061131e60208301848661128b565b949350505050565b60808152600061133a60808301878961128b565b63ffffffff9586166020840152939094166040820152606001529392505050565b6020808252825182820181905260009190848201906040850190845b8181101561139c5783516001600160a01b031683529284019291840191600101611377565b50909695505050505050565b6040815260008351806040840152815b818110156113d557602081870181015160608684010152016113b8565b818111156113e65782606083860101525b50601f19601f8201168301905060206060848303018185015261012082018535606084015263ffffffff61141b838801611040565b16608084015261142e60408701876115b2565b60c060a08601529182905290849061014085015b8183101561146a5760ff61145585611054565b16815292840192600192909201918401611442565b61147760608a018a6115b2565b95509350605f199250828682030160c08701526114958186866112c6565b945050506114a660808801886115b2565b9250818585030160e08601526114bd8484836112c6565b9350506114cd60a08801886115b2565b925081858503016101008601526114e5848483611245565b9998505050505050505050565b6020808252818101527f4f776e61626c653a2063616c6c6572206973206e6f7420746865206f776e6572604082015260600190565b602080825260139082015272195b5c1d1e481d985b1a59185d1bdc881cd95d606a1b604082015260600190565b6000808335601e1984360301811261156a578283fd5b83018035915067ffffffffffffffff821115611584578283fd5b6020019150600581901b360382131561102257600080fd5b6000808335601e1984360301811261156a578182fd5b6000808335601e198436030181126115c8578283fd5b830160208101925035905067ffffffffffffffff8111156115e857600080fd5b8060051b360383131561102257600080fd5b6000821982111561160d5761160d611691565b500190565b60008261162d57634e487b7160e01b81526012600452602481fd5b500490565b600081600019048311821515161561164c5761164c611691565b500290565b600063ffffffff8381169083168181101561166e5761166e611691565b039392505050565b600060001982141561168a5761168a611691565b5060010190565b634e487b7160e01b600052601160045260246000fdfea26469706673582212203e656cbb1dc0c89b989d43f46d16e5b516bf31f647c1fb160284ba85cdb7bc6d64736f6c63430008040033",
  "linkReferences": {},
  "deployedLinkReferences": {}
}