{
  "_format": "hh-sol-artifact-1",
  "contractName": "ERC20Peg",
  "sourceName": "contracts/ERC20Peg.sol",
  "abi": [
    {
      "inputs": [
        {
          "internalType": "address",
          "name": "_bridge",
          "type": "address"
        }
      ],
      "stateMutability": "nonpayable",
      "type": "constructor"
    },
    {
      "anonymous": false,
      "inputs": [
        {
          "indexed": true,
          "internalType": "address",
          "name": "",
          "type": "address"
        },
        {
          "indexed": false,
          "internalType": "address",
          "name": "tokenType",
          "type": "address"
        },
        {
          "indexed": false,
          "internalType": "uint256",
          "name": "amount",
          "type": "uint256"
        },
        {
          "indexed": false,
          "internalType": "bytes32",
          "name": "cennznetAddress",
          "type": "bytes32"
        }
      ],
      "name": "Deposit",
      "type": "event"
    },
    {
      "anonymous": false,
      "inputs": [
        {
          "indexed": false,
          "internalType": "uint256",
          "name": "amount",
          "type": "uint256"
        }
      ],
      "name": "Endow",
      "type": "event"
    },
    {
      "anonymous": false,
      "inputs": [
        {
          "indexed": true,
          "internalType": "address",
          "name": "previousOwner",
          "type": "address"
        },
        {
          "indexed": true,
          "internalType": "address",
          "name": "newOwner",
          "type": "address"
        }
      ],
      "name": "OwnershipTransferred",
      "type": "event"
    },
    {
      "anonymous": false,
      "inputs": [
        {
          "indexed": true,
          "internalType": "address",
          "name": "",
          "type": "address"
        },
        {
          "indexed": false,
          "internalType": "address",
          "name": "tokenType",
          "type": "address"
        },
        {
          "indexed": false,
          "internalType": "uint256",
          "name": "amount",
          "type": "uint256"
        }
      ],
      "name": "Withdraw",
      "type": "event"
    },
    {
      "inputs": [],
      "name": "CENNZ_TOKEN_ADDRESS",
      "outputs": [
        {
          "internalType": "address",
          "name": "",
          "type": "address"
        }
      ],
      "stateMutability": "view",
      "type": "function"
    },
    {
      "inputs": [],
      "name": "ETH_RESERVED_TOKEN_ADDRESS",
      "outputs": [
        {
          "internalType": "address",
          "name": "",
          "type": "address"
        }
      ],
      "stateMutability": "view",
      "type": "function"
    },
    {
      "inputs": [],
      "name": "activateCENNZDeposits",
      "outputs": [],
      "stateMutability": "nonpayable",
      "type": "function"
    },
    {
      "inputs": [],
      "name": "activateDeposits",
      "outputs": [],
      "stateMutability": "nonpayable",
      "type": "function"
    },
    {
      "inputs": [],
      "name": "activateWithdrawals",
      "outputs": [],
      "stateMutability": "nonpayable",
      "type": "function"
    },
    {
      "inputs": [],
      "name": "bridge",
      "outputs": [
        {
          "internalType": "contract CENNZnetBridge",
          "name": "",
          "type": "address"
        }
      ],
      "stateMutability": "view",
      "type": "function"
    },
    {
      "inputs": [],
      "name": "cennzDepositsActive",
      "outputs": [
        {
          "internalType": "bool",
          "name": "",
          "type": "bool"
        }
      ],
      "stateMutability": "view",
      "type": "function"
    },
    {
      "inputs": [
        {
          "internalType": "address",
          "name": "tokenType",
          "type": "address"
        },
        {
          "internalType": "uint256",
          "name": "amount",
          "type": "uint256"
        },
        {
          "internalType": "bytes32",
          "name": "cennznetAddress",
          "type": "bytes32"
        }
      ],
      "name": "deposit",
      "outputs": [],
      "stateMutability": "payable",
      "type": "function"
    },
    {
      "inputs": [],
      "name": "depositsActive",
      "outputs": [
        {
          "internalType": "bool",
          "name": "",
          "type": "bool"
        }
      ],
      "stateMutability": "view",
      "type": "function"
    },
    {
      "inputs": [],
      "name": "endow",
      "outputs": [],
      "stateMutability": "payable",
      "type": "function"
    },
    {
      "inputs": [],
      "name": "owner",
      "outputs": [
        {
          "internalType": "address",
          "name": "",
          "type": "address"
        }
      ],
      "stateMutability": "view",
      "type": "function"
    },
    {
      "inputs": [],
      "name": "pauseDeposits",
      "outputs": [],
      "stateMutability": "nonpayable",
      "type": "function"
    },
    {
      "inputs": [],
      "name": "pauseWithdrawals",
      "outputs": [],
      "stateMutability": "nonpayable",
      "type": "function"
    },
    {
      "inputs": [],
      "name": "renounceOwnership",
      "outputs": [],
      "stateMutability": "nonpayable",
      "type": "function"
    },
    {
      "inputs": [
        {
          "internalType": "address",
          "name": "newOwner",
          "type": "address"
        }
      ],
      "name": "transferOwnership",
      "outputs": [],
      "stateMutability": "nonpayable",
      "type": "function"
    },
    {
      "inputs": [
        {
          "internalType": "address",
          "name": "tokenType",
          "type": "address"
        },
        {
          "internalType": "uint256",
          "name": "amount",
          "type": "uint256"
        },
        {
          "internalType": "address",
          "name": "recipient",
          "type": "address"
        },
        {
          "components": [
            {
              "internalType": "uint256",
              "name": "eventId",
              "type": "uint256"
            },
            {
              "internalType": "uint32",
              "name": "validatorSetId",
              "type": "uint32"
            },
            {
              "internalType": "uint8[]",
              "name": "v",
              "type": "uint8[]"
            },
            {
              "internalType": "bytes32[]",
              "name": "r",
              "type": "bytes32[]"
            },
            {
              "internalType": "bytes32[]",
              "name": "s",
              "type": "bytes32[]"
            },
            {
              "internalType": "address[]",
              "name": "validators",
              "type": "address[]"
            }
          ],
          "internalType": "struct CENNZnetEventProof",
          "name": "proof",
          "type": "tuple"
        }
      ],
      "name": "withdraw",
      "outputs": [],
      "stateMutability": "payable",
      "type": "function"
    },
    {
      "inputs": [],
      "name": "withdrawalsActive",
      "outputs": [
        {
          "internalType": "bool",
          "name": "",
          "type": "bool"
        }
      ],
      "stateMutability": "view",
      "type": "function"
    }
  ],
  "bytecode": "0x608060405234801561001057600080fd5b5060405161117538038061117583398101604081905261002f916100ad565b6100383361005d565b600180546001600160a01b0319166001600160a01b03929092169190911790556100db565b600080546001600160a01b038381166001600160a01b0319831681178455604051919092169283917f8be0079c531659141344cd1fd0a4f28419497f9722a3daafe3b4186f6b6457e09190a35050565b6000602082840312156100be578081fd5b81516001600160a01b03811681146100d4578182fd5b9392505050565b61108b806100ea6000396000f3fe6080604052600436106100fe5760003560e01c80637e771dc011610095578063c8c7624311610064578063c8c7624314610251578063e570351214610266578063e78cea921461027b578063f275c0ce1461029b578063f2fde38b146102bc57600080fd5b80637e771dc0146101ea5780638324e6d7146101fd5780638da5cb5b1461021e578063c0e8e6351461023c57600080fd5b80634500ca4d116100d15780634500ca4d1461017a5780634f2e70a9146101ab57806356bb54a7146101c0578063715018a6146101d557600080fd5b8063021919801461010357806306e30dfc1461011a57806326b3293f146101225780633945ee7714610135575b600080fd5b34801561010f57600080fd5b506101186102dc565b005b61011861031e565b610118610130366004610d63565b6103c2565b34801561014157600080fd5b5061015d731122b6a0e00dce0563082b6e2953f3a943855c1f81565b6040516001600160a01b0390911681526020015b60405180910390f35b34801561018657600080fd5b5060005461019b90600160b01b900460ff1681565b6040519015158152602001610171565b3480156101b757600080fd5b5061015d600081565b3480156101cc57600080fd5b5061011861058f565b3480156101e157600080fd5b506101186105c8565b6101186101f8366004610cf9565b6105fe565b34801561020957600080fd5b5060005461019b90600160a81b900460ff1681565b34801561022a57600080fd5b506000546001600160a01b031661015d565b34801561024857600080fd5b50610118610815565b34801561025d57600080fd5b50610118610854565b34801561027257600080fd5b50610118610893565b34801561028757600080fd5b5060015461015d906001600160a01b031681565b3480156102a757600080fd5b5060005461019b90600160a01b900460ff1681565b3480156102c857600080fd5b506101186102d7366004610cdf565b6108d2565b6000546001600160a01b0316331461030f5760405162461bcd60e51b815260040161030690610fa5565b60405180910390fd5b6000805460ff60a01b19169055565b6000546001600160a01b031633146103485760405162461bcd60e51b815260040161030690610fa5565b6000341161038d5760405162461bcd60e51b81526020600482015260126024820152716d75737420656e646f77206e6f6e7a65726f60701b6044820152606401610306565b6040513481527f28543ecc7e8f50ea4f5cea4bc2211d57d865b287538e2c0105081d65591e63a49060200160405180910390a1565b600054600160a01b900460ff1661040d5760405162461bcd60e51b815260206004820152600f60248201526e19195c1bdcda5d1cc81c185d5cd959608a1b6044820152606401610306565b8061045a5760405162461bcd60e51b815260206004820152601860248201527f696e76616c69642043454e4e5a6e6574206164647265737300000000000000006044820152606401610306565b6001600160a01b0383166104bc578134146104b75760405162461bcd60e51b815260206004820152601860248201527f696e636f7272656374206465706f73697420616d6f756e7400000000000000006044820152606401610306565b61053e565b6001600160a01b038316731122b6a0e00dce0563082b6e2953f3a943855c1f141561053257600054600160a81b900460ff166105325760405162461bcd60e51b815260206004820152601560248201527418d95b9b9e8819195c1bdcda5d1cc81c185d5cd959605a1b6044820152606401610306565b61053e8333308561096d565b604080516001600160a01b03851681526020810184905290810182905233907f76bb911c362d5b1feb3058bc7dc9354703e4b6eb9c61cc845f73da880cf62f619060600160405180910390a2505050565b6000546001600160a01b031633146105b95760405162461bcd60e51b815260040161030690610fa5565b6000805460ff60b01b19169055565b6000546001600160a01b031633146105f25760405162461bcd60e51b815260040161030690610fa5565b6105fc60006109de565b565b600054600160b01b900460ff1661064c5760405162461bcd60e51b81526020600482015260126024820152711dda5d1a191c985dd85b1cc81c185d5cd95960721b6044820152606401610306565b60008484846106616040860160208701610db5565b604080516001600160a01b039586166020820152908101939093529216606082015263ffffffff9091166080820152823560a082015260c00160408051601f19818403018152908290526001546363c75f5f60e11b83529092506001600160a01b03169063c78ebebe9034906106dd9085908790600401610e91565b6000604051808303818588803b1580156106f657600080fd5b505af115801561070a573d6000803e3d6000fd5b50505050506001600160a01b0385166107bd576000836001600160a01b03168560405160006040518083038185875af1925050503d806000811461076a576040519150601f19603f3d011682016040523d82523d6000602084013e61076f565b606091505b50509050806107b75760405162461bcd60e51b81526020600482015260146024820152732330b4b632b2103a379039b2b7321022ba3432b960611b6044820152606401610306565b506107c8565b6107c8858486610a2e565b604080516001600160a01b038781168252602082018790528516917f9b1bfa7fa9ee420a16e124f794c35ac9f90472acc99140eb2f6447c714cad8eb910160405180910390a25050505050565b6000546001600160a01b0316331461083f5760405162461bcd60e51b815260040161030690610fa5565b6000805460ff60a81b1916600160a81b179055565b6000546001600160a01b0316331461087e5760405162461bcd60e51b815260040161030690610fa5565b6000805460ff60b01b1916600160b01b179055565b6000546001600160a01b031633146108bd5760405162461bcd60e51b815260040161030690610fa5565b6000805460ff60a01b1916600160a01b179055565b6000546001600160a01b031633146108fc5760405162461bcd60e51b815260040161030690610fa5565b6001600160a01b0381166109615760405162461bcd60e51b815260206004820152602660248201527f4f776e61626c653a206e6577206f776e657220697320746865207a65726f206160448201526564647265737360d01b6064820152608401610306565b61096a816109de565b50565b6040516001600160a01b03808516602483015283166044820152606481018290526109d89085906323b872dd60e01b906084015b60408051601f198184030181529190526020810180516001600160e01b03166001600160e01b031990931692909217909152610a63565b50505050565b600080546001600160a01b038381166001600160a01b0319831681178455604051919092169283917f8be0079c531659141344cd1fd0a4f28419497f9722a3daafe3b4186f6b6457e09190a35050565b6040516001600160a01b038316602482015260448101829052610a5e90849063a9059cbb60e01b906064016109a1565b505050565b6000610ab8826040518060400160405280602081526020017f5361666545524332303a206c6f772d6c6576656c2063616c6c206661696c6564815250856001600160a01b0316610b359092919063ffffffff16565b805190915015610a5e5780806020019051810190610ad69190610d95565b610a5e5760405162461bcd60e51b815260206004820152602a60248201527f5361666545524332303a204552433230206f7065726174696f6e20646964206e6044820152691bdd081cdd58d8d9595960b21b6064820152608401610306565b6060610b448484600085610b4e565b90505b9392505050565b606082471015610baf5760405162461bcd60e51b815260206004820152602660248201527f416464726573733a20696e73756666696369656e742062616c616e636520666f6044820152651c8818d85b1b60d21b6064820152608401610306565b843b610bfd5760405162461bcd60e51b815260206004820152601d60248201527f416464726573733a2063616c6c20746f206e6f6e2d636f6e74726163740000006044820152606401610306565b600080866001600160a01b03168587604051610c199190610e75565b60006040518083038185875af1925050503d8060008114610c56576040519150601f19603f3d011682016040523d82523d6000602084013e610c5b565b606091505b5091509150610c6b828286610c76565b979650505050505050565b60608315610c85575081610b47565b825115610c955782518084602001fd5b8160405162461bcd60e51b81526004016103069190610f92565b80356001600160a01b0381168114610cc657600080fd5b919050565b803563ffffffff81168114610cc657600080fd5b600060208284031215610cf0578081fd5b610b4782610caf565b60008060008060808587031215610d0e578283fd5b610d1785610caf565b935060208501359250610d2c60408601610caf565b9150606085013567ffffffffffffffff811115610d47578182fd5b850160c08188031215610d58578182fd5b939692955090935050565b600080600060608486031215610d77578283fd5b610d8084610caf565b95602085013595506040909401359392505050565b600060208284031215610da6578081fd5b81518015158114610b47578182fd5b600060208284031215610dc6578081fd5b610b4782610ccb565b81835260006020808501945082825b85811015610e0a576001600160a01b03610df783610caf565b1687529582019590820190600101610dde565b509495945050505050565b81835260006001600160fb1b03831115610e2d578081fd5b8260051b80836020870137939093016020019283525090919050565b60008151808452610e61816020860160208601611029565b601f01601f19169290920160200192915050565b60008251610e87818460208701611029565b9190910192915050565b604081526000610ea46040830185610e49565b60208382038185015260c082018535835263ffffffff610ec5838801610ccb565b1682840152610ed76040870187610fda565b60c060408601529182905290849060e085015b81831015610f1857833560ff8116808214610f03578889fd5b82525092840192600192909201918401610eea565b610f2560608a018a610fda565b955093508581036060870152610f3c818686610e15565b945050505050610f4f6080860186610fda565b8383036080850152610f62838284610e15565b92505050610f7360a0860186610fda565b83830360a0850152610f86838284610dcf565b98975050505050505050565b602081526000610b476020830184610e49565b6020808252818101527f4f776e61626c653a2063616c6c6572206973206e6f7420746865206f776e6572604082015260600190565b6000808335601e19843603018112610ff0578283fd5b830160208101925035905067ffffffffffffffff81111561101057600080fd5b8060051b360383131561102257600080fd5b9250929050565b60005b8381101561104457818101518382015260200161102c565b838111156109d8575050600091015256fea2646970667358221220a3c2799ca7e53cbe1227c226f74bf528510c616a926e764995d5aa86c86536c264736f6c63430008040033",
  "linkReferences": {},
  "deployedLinkReferences": {}
}