{
  "_format": "hh-sol-artifact-1",
  "contractName": "WrappedCENNZ",
  "sourceName": "contracts/WrappedCENNZ.sol",
  "abi": [
    {
      "inputs": [
        {
          "internalType": "address",
          "name": "_pegAddress",
          "type": "address"
        }
      ],
      "stateMutability": "nonpayable",
      "type": "constructor"
    },
    {
      "anonymous": false,
      "inputs": [
        {
          "indexed": true,
          "internalType": "address",
          "name": "owner",
          "type": "address"
        },
        {
          "indexed": true,
          "internalType": "address",
          "name": "spender",
          "type": "address"
        },
        {
          "indexed": false,
          "internalType": "uint256",
          "name": "value",
          "type": "uint256"
        }
      ],
      "name": "Approval",
      "type": "event"
    },
    {
      "anonymous": false,
      "inputs": [
        {
          "indexed": false,
          "internalType": "address",
          "name": "account",
          "type": "address"
        }
      ],
      "name": "Paused",
      "type": "event"
    },
    {
      "anonymous": false,
      "inputs": [
        {
          "indexed": true,
          "internalType": "bytes32",
          "name": "role",
          "type": "bytes32"
        },
        {
          "indexed": true,
          "internalType": "bytes32",
          "name": "previousAdminRole",
          "type": "bytes32"
        },
        {
          "indexed": true,
          "internalType": "bytes32",
          "name": "newAdminRole",
          "type": "bytes32"
        }
      ],
      "name": "RoleAdminChanged",
      "type": "event"
    },
    {
      "anonymous": false,
      "inputs": [
        {
          "indexed": true,
          "internalType": "bytes32",
          "name": "role",
          "type": "bytes32"
        },
        {
          "indexed": true,
          "internalType": "address",
          "name": "account",
          "type": "address"
        },
        {
          "indexed": true,
          "internalType": "address",
          "name": "sender",
          "type": "address"
        }
      ],
      "name": "RoleGranted",
      "type": "event"
    },
    {
      "anonymous": false,
      "inputs": [
        {
          "indexed": true,
          "internalType": "bytes32",
          "name": "role",
          "type": "bytes32"
        },
        {
          "indexed": true,
          "internalType": "address",
          "name": "account",
          "type": "address"
        },
        {
          "indexed": true,
          "internalType": "address",
          "name": "sender",
          "type": "address"
        }
      ],
      "name": "RoleRevoked",
      "type": "event"
    },
    {
      "anonymous": false,
      "inputs": [
        {
          "indexed": true,
          "internalType": "address",
          "name": "from",
          "type": "address"
        },
        {
          "indexed": true,
          "internalType": "address",
          "name": "to",
          "type": "address"
        },
        {
          "indexed": false,
          "internalType": "uint256",
          "name": "value",
          "type": "uint256"
        }
      ],
      "name": "Transfer",
      "type": "event"
    },
    {
      "anonymous": false,
      "inputs": [
        {
          "indexed": false,
          "internalType": "address",
          "name": "account",
          "type": "address"
        }
      ],
      "name": "Unpaused",
      "type": "event"
    },
    {
      "inputs": [],
      "name": "DEFAULT_ADMIN_ROLE",
      "outputs": [
        {
          "internalType": "bytes32",
          "name": "",
          "type": "bytes32"
        }
      ],
      "stateMutability": "view",
      "type": "function"
    },
    {
      "inputs": [],
      "name": "MINTER_ROLE",
      "outputs": [
        {
          "internalType": "bytes32",
          "name": "",
          "type": "bytes32"
        }
      ],
      "stateMutability": "view",
      "type": "function"
    },
    {
      "inputs": [
        {
          "internalType": "address",
          "name": "owner",
          "type": "address"
        },
        {
          "internalType": "address",
          "name": "spender",
          "type": "address"
        }
      ],
      "name": "allowance",
      "outputs": [
        {
          "internalType": "uint256",
          "name": "",
          "type": "uint256"
        }
      ],
      "stateMutability": "view",
      "type": "function"
    },
    {
      "inputs": [
        {
          "internalType": "address",
          "name": "spender",
          "type": "address"
        },
        {
          "internalType": "uint256",
          "name": "amount",
          "type": "uint256"
        }
      ],
      "name": "approve",
      "outputs": [
        {
          "internalType": "bool",
          "name": "",
          "type": "bool"
        }
      ],
      "stateMutability": "nonpayable",
      "type": "function"
    },
    {
      "inputs": [
        {
          "internalType": "address",
          "name": "account",
          "type": "address"
        }
      ],
      "name": "balanceOf",
      "outputs": [
        {
          "internalType": "uint256",
          "name": "",
          "type": "uint256"
        }
      ],
      "stateMutability": "view",
      "type": "function"
    },
    {
      "inputs": [
        {
          "internalType": "address",
          "name": "from",
          "type": "address"
        },
        {
          "internalType": "uint256",
          "name": "amount",
          "type": "uint256"
        }
      ],
      "name": "burn",
      "outputs": [],
      "stateMutability": "nonpayable",
      "type": "function"
    },
    {
      "inputs": [],
      "name": "decimals",
      "outputs": [
        {
          "internalType": "uint8",
          "name": "",
          "type": "uint8"
        }
      ],
      "stateMutability": "pure",
      "type": "function"
    },
    {
      "inputs": [
        {
          "internalType": "address",
          "name": "spender",
          "type": "address"
        },
        {
          "internalType": "uint256",
          "name": "subtractedValue",
          "type": "uint256"
        }
      ],
      "name": "decreaseAllowance",
      "outputs": [
        {
          "internalType": "bool",
          "name": "",
          "type": "bool"
        }
      ],
      "stateMutability": "nonpayable",
      "type": "function"
    },
    {
      "inputs": [
        {
          "internalType": "bytes32",
          "name": "role",
          "type": "bytes32"
        }
      ],
      "name": "getRoleAdmin",
      "outputs": [
        {
          "internalType": "bytes32",
          "name": "",
          "type": "bytes32"
        }
      ],
      "stateMutability": "view",
      "type": "function"
    },
    {
      "inputs": [
        {
          "internalType": "bytes32",
          "name": "role",
          "type": "bytes32"
        },
        {
          "internalType": "address",
          "name": "account",
          "type": "address"
        }
      ],
      "name": "grantRole",
      "outputs": [],
      "stateMutability": "nonpayable",
      "type": "function"
    },
    {
      "inputs": [
        {
          "internalType": "bytes32",
          "name": "role",
          "type": "bytes32"
        },
        {
          "internalType": "address",
          "name": "account",
          "type": "address"
        }
      ],
      "name": "hasRole",
      "outputs": [
        {
          "internalType": "bool",
          "name": "",
          "type": "bool"
        }
      ],
      "stateMutability": "view",
      "type": "function"
    },
    {
      "inputs": [
        {
          "internalType": "address",
          "name": "spender",
          "type": "address"
        },
        {
          "internalType": "uint256",
          "name": "addedValue",
          "type": "uint256"
        }
      ],
      "name": "increaseAllowance",
      "outputs": [
        {
          "internalType": "bool",
          "name": "",
          "type": "bool"
        }
      ],
      "stateMutability": "nonpayable",
      "type": "function"
    },
    {
      "inputs": [
        {
          "internalType": "address",
          "name": "to",
          "type": "address"
        },
        {
          "internalType": "uint256",
          "name": "amount",
          "type": "uint256"
        }
      ],
      "name": "mint",
      "outputs": [],
      "stateMutability": "nonpayable",
      "type": "function"
    },
    {
      "inputs": [],
      "name": "name",
      "outputs": [
        {
          "internalType": "string",
          "name": "",
          "type": "string"
        }
      ],
      "stateMutability": "view",
      "type": "function"
    },
    {
      "inputs": [],
      "name": "pause",
      "outputs": [],
      "stateMutability": "nonpayable",
      "type": "function"
    },
    {
      "inputs": [],
      "name": "paused",
      "outputs": [
        {
          "internalType": "bool",
          "name": "",
          "type": "bool"
        }
      ],
      "stateMutability": "view",
      "type": "function"
    },
    {
      "inputs": [
        {
          "internalType": "bytes32",
          "name": "role",
          "type": "bytes32"
        },
        {
          "internalType": "address",
          "name": "account",
          "type": "address"
        }
      ],
      "name": "renounceRole",
      "outputs": [],
      "stateMutability": "nonpayable",
      "type": "function"
    },
    {
      "inputs": [
        {
          "internalType": "bytes32",
          "name": "role",
          "type": "bytes32"
        },
        {
          "internalType": "address",
          "name": "account",
          "type": "address"
        }
      ],
      "name": "revokeRole",
      "outputs": [],
      "stateMutability": "nonpayable",
      "type": "function"
    },
    {
      "inputs": [
        {
          "internalType": "bytes4",
          "name": "interfaceId",
          "type": "bytes4"
        }
      ],
      "name": "supportsInterface",
      "outputs": [
        {
          "internalType": "bool",
          "name": "",
          "type": "bool"
        }
      ],
      "stateMutability": "view",
      "type": "function"
    },
    {
      "inputs": [],
      "name": "symbol",
      "outputs": [
        {
          "internalType": "string",
          "name": "",
          "type": "string"
        }
      ],
      "stateMutability": "view",
      "type": "function"
    },
    {
      "inputs": [],
      "name": "totalSupply",
      "outputs": [
        {
          "internalType": "uint256",
          "name": "",
          "type": "uint256"
        }
      ],
      "stateMutability": "view",
      "type": "function"
    },
    {
      "inputs": [
        {
          "internalType": "address",
          "name": "buyer",
          "type": "address"
        },
        {
          "internalType": "uint256",
          "name": "numTokens",
          "type": "uint256"
        }
      ],
      "name": "transfer",
      "outputs": [
        {
          "internalType": "bool",
          "name": "",
          "type": "bool"
        }
      ],
      "stateMutability": "nonpayable",
      "type": "function"
    },
    {
      "inputs": [
        {
          "internalType": "address",
          "name": "owner",
          "type": "address"
        },
        {
          "internalType": "address",
          "name": "buyer",
          "type": "address"
        },
        {
          "internalType": "uint256",
          "name": "numTokens",
          "type": "uint256"
        }
      ],
      "name": "transferFrom",
      "outputs": [
        {
          "internalType": "bool",
          "name": "",
          "type": "bool"
        }
      ],
      "stateMutability": "nonpayable",
      "type": "function"
    },
    {
      "inputs": [],
      "name": "unpause",
      "outputs": [],
      "stateMutability": "nonpayable",
      "type": "function"
    }
  ],
  "bytecode": "0x60806040523480156200001157600080fd5b506040516200175938038062001759833981016040819052620000349162000235565b604080518082018252600d81526c2bb930b83832b21021a2a7272d60991b6020808301918252835180850190945260068452652ba1a2a7272d60d11b90840152815191929162000087916003916200018f565b5080516200009d9060049060208401906200018f565b50506005805460ff1916905550620000d67f9f2df0fed2c77648de5860a4cc508cd0818c85b8b8a1ab4ceeef8d981c8956a682620000ea565b620000e3600033620000ea565b50620002a3565b60008281526006602090815260408083206001600160a01b038516845290915290205460ff166200018b5760008281526006602090815260408083206001600160a01b03851684529091529020805460ff191660011790556200014a3390565b6001600160a01b0316816001600160a01b0316837f2f8788117e7eff1d82e926ec794901d17c78024a50270940304540a733656f0d60405160405180910390a45b5050565b8280546200019d9062000267565b90600052602060002090601f016020900481019282620001c157600085556200020c565b82601f10620001dc57805160ff19168380011785556200020c565b828001600101855582156200020c579182015b828111156200020c578251825591602001919060010190620001ef565b506200021a9291506200021e565b5090565b5b808211156200021a57600081556001016200021f565b6000602082840312156200024857600080fd5b81516001600160a01b03811681146200026057600080fd5b9392505050565b600181811c908216806200027c57607f821691505b6020821081036200029d57634e487b7160e01b600052602260045260246000fd5b50919050565b6114a680620002b36000396000f3fe608060405234801561001057600080fd5b50600436106101585760003560e01c80635c975abb116100c3578063a217fddf1161007c578063a217fddf146102c4578063a457c2d7146102cc578063a9059cbb146102df578063d5391393146102f2578063d547741f14610307578063dd62ed3e1461031a57600080fd5b80635c975abb1461025a57806370a08231146102655780638456cb591461028e57806391d148541461029657806395d89b41146102a95780639dc29fac146102b157600080fd5b80632f2ff15d116101155780632f2ff15d146101f5578063313ce5671461020a57806336568abe14610219578063395093511461022c5780633f4ba83a1461023f57806340c10f191461024757600080fd5b806301ffc9a71461015d57806306fdde0314610185578063095ea7b31461019a57806318160ddd146101ad57806323b872dd146101bf578063248a9ca3146101d2575b600080fd5b61017061016b366004611165565b610353565b60405190151581526020015b60405180910390f35b61018d61038a565b60405161017c91906111bb565b6101706101a836600461120a565b61041c565b6002545b60405190815260200161017c565b6101706101cd366004611234565b610432565b6101b16101e0366004611270565b60009081526006602052604090206001015490565b610208610203366004611289565b610478565b005b6040516004815260200161017c565b610208610227366004611289565b6104a3565b61017061023a36600461120a565b610526565b610208610562565b61020861025536600461120a565b610579565b60055460ff16610170565b6101b16102733660046112b5565b6001600160a01b031660009081526020819052604090205490565b61020861059c565b6101706102a4366004611289565b6105b0565b61018d6105db565b6102086102bf36600461120a565b6105ea565b6101b1600081565b6101706102da36600461120a565b61060d565b6101706102ed36600461120a565b6106a6565b6101b160008051602061145183398151915281565b610208610315366004611289565b6106e1565b6101b16103283660046112d0565b6001600160a01b03918216600090815260016020908152604080832093909416825291909152205490565b60006001600160e01b03198216637965db0b60e01b148061038457506301ffc9a760e01b6001600160e01b03198316145b92915050565b606060038054610399906112fa565b80601f01602080910402602001604051908101604052809291908181526020018280546103c5906112fa565b80156104125780601f106103e757610100808354040283529160200191610412565b820191906000526020600020905b8154815290600101906020018083116103f557829003601f168201915b5050505050905090565b6000610429338484610707565b50600192915050565b600061044c600080516020611451833981519152336105b0565b156104635761045b84836105ea565b506001610471565b61046e84848461082b565b90505b9392505050565b60008281526006602052604090206001015461049481336108d5565b61049e8383610939565b505050565b6001600160a01b03811633146105185760405162461bcd60e51b815260206004820152602f60248201527f416363657373436f6e74726f6c3a2063616e206f6e6c792072656e6f756e636560448201526e103937b632b9903337b91039b2b63360891b60648201526084015b60405180910390fd5b61052282826109bf565b5050565b3360008181526001602090815260408083206001600160a01b0387168452909152812054909161042991859061055d90869061134a565b610707565b600061056e81336108d5565b610576610a26565b50565b60008051602061145183398151915261059281336108d5565b61049e8383610ab9565b60006105a881336108d5565b610576610ba4565b60009182526006602090815260408084206001600160a01b0393909316845291905290205460ff1690565b606060048054610399906112fa565b60008051602061145183398151915261060381336108d5565b61049e8383610c1f565b3360009081526001602090815260408083206001600160a01b03861684529091528120548281101561068f5760405162461bcd60e51b815260206004820152602560248201527f45524332303a2064656372656173656420616c6c6f77616e63652062656c6f77604482015264207a65726f60d81b606482015260840161050f565b61069c3385858403610707565b5060019392505050565b60006106c0600080516020611451833981519152336105b0565b156106d7576106cf8383610579565b506001610384565b6104718383610d79565b6000828152600660205260409020600101546106fd81336108d5565b61049e83836109bf565b6001600160a01b0383166107695760405162461bcd60e51b8152602060048201526024808201527f45524332303a20617070726f76652066726f6d20746865207a65726f206164646044820152637265737360e01b606482015260840161050f565b6001600160a01b0382166107ca5760405162461bcd60e51b815260206004820152602260248201527f45524332303a20617070726f766520746f20746865207a65726f206164647265604482015261737360f01b606482015260840161050f565b6001600160a01b0383811660008181526001602090815260408083209487168084529482529182902085905590518481527f8c5be1e5ebec7d5bd14f71427d1e84f3dd0314c0f7b2291e5b200ac8c7c3b925910160405180910390a3505050565b6000610838848484610d82565b6001600160a01b0384166000908152600160209081526040808320338452909152902054828110156108bd5760405162461bcd60e51b815260206004820152602860248201527f45524332303a207472616e7366657220616d6f756e74206578636565647320616044820152676c6c6f77616e636560c01b606482015260840161050f565b6108ca8533858403610707565b506001949350505050565b6108df82826105b0565b610522576108f7816001600160a01b03166014610f5d565b610902836020610f5d565b604051602001610913929190611362565b60408051601f198184030181529082905262461bcd60e51b825261050f916004016111bb565b61094382826105b0565b6105225760008281526006602090815260408083206001600160a01b03851684529091529020805460ff1916600117905561097b3390565b6001600160a01b0316816001600160a01b0316837f2f8788117e7eff1d82e926ec794901d17c78024a50270940304540a733656f0d60405160405180910390a45050565b6109c982826105b0565b156105225760008281526006602090815260408083206001600160a01b0385168085529252808320805460ff1916905551339285917ff6391f5c32d9c69d2a47ea670b442974b53935d1edc7fd64eb21e047a839171b9190a45050565b60055460ff16610a6f5760405162461bcd60e51b815260206004820152601460248201527314185d5cd8589b194e881b9bdd081c185d5cd95960621b604482015260640161050f565b6005805460ff191690557f5db9ee0a495bf2e6ff9c91a7834c1ba4fdd244a5e8aa4e537bd38aeae4b073aa335b6040516001600160a01b03909116815260200160405180910390a1565b6001600160a01b038216610b0f5760405162461bcd60e51b815260206004820152601f60248201527f45524332303a206d696e7420746f20746865207a65726f206164647265737300604482015260640161050f565b610b1b600083836110f9565b8060026000828254610b2d919061134a565b90915550506001600160a01b03821660009081526020819052604081208054839290610b5a90849061134a565b90915550506040518181526001600160a01b038316906000907fddf252ad1be2c89b69c2b068fc378daa952ba7f163c4a11628f55a4df523b3ef9060200160405180910390a35050565b60055460ff1615610bea5760405162461bcd60e51b815260206004820152601060248201526f14185d5cd8589b194e881c185d5cd95960821b604482015260640161050f565b6005805460ff191660011790557f62e78cea01bee320cd4e420270b5ea74000d11b0c9f74754ebdbfc544b05a258610a9c3390565b6001600160a01b038216610c7f5760405162461bcd60e51b815260206004820152602160248201527f45524332303a206275726e2066726f6d20746865207a65726f206164647265736044820152607360f81b606482015260840161050f565b610c8b826000836110f9565b6001600160a01b03821660009081526020819052604090205481811015610cff5760405162461bcd60e51b815260206004820152602260248201527f45524332303a206275726e20616d6f756e7420657863656564732062616c616e604482015261636560f01b606482015260840161050f565b6001600160a01b0383166000908152602081905260408120838303905560028054849290610d2e9084906113d7565b90915550506040518281526000906001600160a01b038516907fddf252ad1be2c89b69c2b068fc378daa952ba7f163c4a11628f55a4df523b3ef9060200160405180910390a3505050565b60006104293384845b6001600160a01b038316610de65760405162461bcd60e51b815260206004820152602560248201527f45524332303a207472616e736665722066726f6d20746865207a65726f206164604482015264647265737360d81b606482015260840161050f565b6001600160a01b038216610e485760405162461bcd60e51b815260206004820152602360248201527f45524332303a207472616e7366657220746f20746865207a65726f206164647260448201526265737360e81b606482015260840161050f565b610e538383836110f9565b6001600160a01b03831660009081526020819052604090205481811015610ecb5760405162461bcd60e51b815260206004820152602660248201527f45524332303a207472616e7366657220616d6f756e7420657863656564732062604482015265616c616e636560d01b606482015260840161050f565b6001600160a01b03808516600090815260208190526040808220858503905591851681529081208054849290610f0290849061134a565b92505081905550826001600160a01b0316846001600160a01b03167fddf252ad1be2c89b69c2b068fc378daa952ba7f163c4a11628f55a4df523b3ef84604051610f4e91815260200190565b60405180910390a35b50505050565b60606000610f6c8360026113ee565b610f7790600261134a565b67ffffffffffffffff811115610f8f57610f8f61140d565b6040519080825280601f01601f191660200182016040528015610fb9576020820181803683370190505b509050600360fc1b81600081518110610fd457610fd4611423565b60200101906001600160f81b031916908160001a905350600f60fb1b8160018151811061100357611003611423565b60200101906001600160f81b031916908160001a90535060006110278460026113ee565b61103290600161134a565b90505b60018111156110aa576f181899199a1a9b1b9c1cb0b131b232b360811b85600f166010811061106657611066611423565b1a60f81b82828151811061107c5761107c611423565b60200101906001600160f81b031916908160001a90535060049490941c936110a381611439565b9050611035565b5083156104715760405162461bcd60e51b815260206004820181905260248201527f537472696e67733a20686578206c656e67746820696e73756666696369656e74604482015260640161050f565b61049e83838360055460ff161561049e5760405162461bcd60e51b815260206004820152602a60248201527f45524332305061757361626c653a20746f6b656e207472616e736665722077686044820152691a5b19481c185d5cd95960b21b606482015260840161050f565b60006020828403121561117757600080fd5b81356001600160e01b03198116811461047157600080fd5b60005b838110156111aa578181015183820152602001611192565b83811115610f575750506000910152565b60208152600082518060208401526111da81604085016020870161118f565b601f01601f19169190910160400192915050565b80356001600160a01b038116811461120557600080fd5b919050565b6000806040838503121561121d57600080fd5b611226836111ee565b946020939093013593505050565b60008060006060848603121561124957600080fd5b611252846111ee565b9250611260602085016111ee565b9150604084013590509250925092565b60006020828403121561128257600080fd5b5035919050565b6000806040838503121561129c57600080fd5b823591506112ac602084016111ee565b90509250929050565b6000602082840312156112c757600080fd5b610471826111ee565b600080604083850312156112e357600080fd5b6112ec836111ee565b91506112ac602084016111ee565b600181811c9082168061130e57607f821691505b60208210810361132e57634e487b7160e01b600052602260045260246000fd5b50919050565b634e487b7160e01b600052601160045260246000fd5b6000821982111561135d5761135d611334565b500190565b7f416363657373436f6e74726f6c3a206163636f756e742000000000000000000081526000835161139a81601785016020880161118f565b7001034b99036b4b9b9b4b733903937b6329607d1b60179184019182015283516113cb81602884016020880161118f565b01602801949350505050565b6000828210156113e9576113e9611334565b500390565b600081600019048311821515161561140857611408611334565b500290565b634e487b7160e01b600052604160045260246000fd5b634e487b7160e01b600052603260045260246000fd5b60008161144857611448611334565b50600019019056fe9f2df0fed2c77648de5860a4cc508cd0818c85b8b8a1ab4ceeef8d981c8956a6a2646970667358221220f9e09eea78bb451a40295d70b90860c9f6e154de7c9f7d4bdf4cc0f1ea89345a64736f6c634300080d0033",
  "linkReferences": {},
  "deployedLinkReferences": {}
}